:100000000C947F000C949C000C949C000C949C001D
:100010000C949C000C949C000C940B030C949C007E
:100020000C949C000C949C000C949C000C949C00E0
:100030000C949C000C949C000C949C000C949C00D0
:100040000C949C000C949C000C949C000C949C00C0
:100050000C949C000C949C000C949C000C949C00B0
:100060000C949C000C949C000C949C000C949C00A0
:100070000C949C000C949C000C949C0008000000C4
:10008000BE922449123EABAAAA2ABECDCCCC4C3E8D
:1000900000000080BEABAAAAAA3E00000000BF007C
:1000A0000000803F0000000000084178D3BB438778
:1000B000D1133D190E3CC3BD4282AD2B3E68EC828C
:1000C00076BED98FE1A93E4C80EFFFBE01C4FF7F11
:1000D0003F000000000007634236B79BD8A71A39DB
:1000E000685618AEBAAB558C1D3CB7CC5763BD6D86
:1000F000EDFD753EF6177231BF000000803F112400
:100100001FBECFEFD8E0DEBFCDBF11E0A0E0B1E071
:10011000E8E8F7E102C005900D92A83FB107D9F7D2
:1001200022E0A8EFB1E001C01D92A930B207E1F7CB
:100130000E9484040C94C2080C940000CF92DF92B9
:10014000EF92FF920F931F93CF93DF9300D000D0D5
:100150001F92CDB7DEB76C01DE01119695E0FD016F
:1001600011929A95E9F7389A409AFFEF21EE84E0D0
:10017000F15020408040E1F700C0000040989FEF20
:10018000A0EEB0E09150A040B040E1F700C0000008
:10019000409A3898E5EDEA95F1F7000030995DC096
:1001A0008FE391E00197F1F700C00000309B57C04A
:1001B000AFE3B1E01197F1F700C000008E010F5FCF
:1001C0001F4F7E01B6E0EB0EF11CE1E0F0E026C02F
:1001D0002150310919F445C029EC30E0309BF8CFAB
:1001E00020EA2A95F1F7309B08C09F01042E02C037
:1001F000220F331F0A94E2F7922B29EC30E003C060
:100200002150310981F13099FBCF4150510920F73C
:10021000D8019D938D01EA16FB0621F047E050E0DE
:1002200090E0DACF389A409ABFEFE1EEF4E0B150B7
:10023000E040F040E1F700C0000029813B818A8165
:10024000820F830F9C81890F9D8189130EC0D60177
:100250003C93FB01208380E009C08FEF07C08EEF45
:1002600005C08CEF03C08DEF01C08BEF0F900F9096
:100270000F900F900F90DF91CF911F910F91FF90F2
:10028000EF90DF90CF900895CF93DF931F92CDB77B
:10029000DEB71982BE016F5F7F4F0E949E000F90F4
:1002A000DF91CF9108952C9808952C9A08950DB45C
:1002B00007FEFDCF0895CF93DF93C82FD62F0E945E
:1002C00053018D2F8F71C82BCEBD0E9457011EBCCC
:1002D0000E945701DD231CF41EBC0E9457010E949E
:1002E00055018EB5DF91CF9108951F93CF93DF9382
:1002F000C82FD62F142F0E945301DF71CD2BCEBDF6
:100300000E9457011EBD0E9457010E945501DF91B6
:10031000CF911F9108951F93CF93DF93182F1076DD
:10032000C12FD0E08091FA0190E0C817D907B1F051
:1003300043E06FE180EA0E947501AE015595479553
:100340005595479555954795559547955595479595
:100350006FE180E80E9475011093FA01DF91CF915F
:100360001F910895CF93C82F0E948B016C2F80E0BE
:100370000E945B01CF910895CF93DF93C82FD62FB2
:100380000E948B014D2F6C2F80E40E947501DF913C
:10039000CF910895CF93DF93D62FC72F682F84ED89
:1003A0000E94BC016D2F86ED0E94BC016C2F87ED71
:1003B0000E94BC0103C080E58A95F1F78AEE0E9495
:1003C000B20180FDF8CFDF91CF910895682F67705B
:1003D00085E70E94BC010895CF93DF93EC01249A36
:1003E0000E94550184B1806A84B926982D982F986F
:1003F00080E58CBD8DB581608DBD4FEF60E08FEFE6
:100400000E9475018DEC8A95F1F71092F901109216
:10041000F80160E088E00E94BC0160E089E00E9491
:10042000BC0160E08CE00E94BC0160E08DE00E94B5
:10043000BC016EEF8AE00E94BC0169E18BE00E9482
:10044000BC016FEF84E00E94BC0169E185E00E947D
:10045000BC016FEF86E00E94BC016FE187E00E9463
:10046000BC0160EB88E30E94BC016FE388E20E945C
:10047000BC0160E389E20E94BC0169EF80E30E9455
:10048000BC0167EF81E30E94BC016DE080EC0E943B
:10049000BC0160E081EC0E94BC0142E362EC80E8B8
:1004A0000E94750162E186EC0E94BC016CE087EC61
:1004B0000E94BC0162E184EC0E94BC016CED8AECFC
:1004C0000E94BC0165E08BEC0E94BC01688184EE57
:1004D0000E94BC01698185EE0E94BC016A8182EEA6
:1004E0000E94BC016B8183EE0E94BC016C8180EE96
:1004F0000E94BC016D8181EE0E94BC0160E071E050
:1005000080E10E94CA018FE10E948B0140EC6BE107
:1005100080E80E94750144E06FE180E80E94750167
:10052000DF91CF91089580E480937C0087E88093E9
:100530007A000895ECE7F0E09081907E892B80832B
:10054000EAE7F0E0808180648083808186FDFDCFD2
:10055000809178009091790008958BB180588BB983
:100560000895CF93DF93CDB7DEB7CF56D1090FB63D
:10057000F894DEBF0FBECDBF1982CE0101960E9456
:100580004401882334F486E291E00E941E058FEF37
:1005900038C089814AE0BE016E5F7F4F082E000C93
:1005A000990B0E94C50880910702909108029C0156
:1005B0002F5F3F4F30930802209307024AE0BE01AD
:1005C0006A597F4F0E94C5088091070290910802E6
:1005D0008536910524F01092080210920702CE0190
:1005E0008A599F4F0E941E058EE291E00E941E05CF
:1005F000CE0102960E941E0580E491E00E941E0535
:100600008981C159DF4F0FB6F894DEBF0FBECDBF51
:10061000DF91CF9108951F920F920FB60F92112480
:100620002F933F934F935F936F937F938F939F93FA
:10063000AF93BF93EF93FF93F89426B181E090E0DE
:1006400002C0959587952A95E2F780FF0DC085E455
:1006500091E00E941E052FEF85EA9EE02150804028
:100660009040E1F700C000007894FF91EF91BF91B6
:10067000AF919F918F917F916F915F914F913F913A
:100680002F910F900FBE0F901F9018953998419A97
:100690000895319B06C089E591E00E941E0581E026
:1006A000089586E591E00E941E0580E008953A9A3B
:1006B000429A089598B184E0892788B90895CF9225
:1006C000DF92EF92FF92CF93DF93EC018FEF93E0F5
:1006D000BC016C1B7D0B072E000C880B990B0E9434
:1006E000440620E030E040E251E40E9420076B0124
:1006F0007C01BE01DD0F880B990B0E9444069B0113
:10070000AC01C701B6010E949A05DF91CF91FF901D
:10071000EF90DF90CF900895CF92DF92EF92FF920B
:10072000CF93DF93CAE0D0E0C12CD12C760180E0DA
:100730000E949A020E945F039B01AC01C701B601AF
:100740000E942E056B017C012FEF89E698E1215074
:1007500080409040E1F700C00000219741F720E081
:1007600030E040E251E4C701B6010E949A052EEA4A
:1007700037E44DE151E40E949A05DF91CF91FF905B
:10078000EF90DF90CF900895CF92DF92EF92FF929B
:10079000CF93DF93C5E0D0E0C12CD12C760180E06F
:1007A0000E949A020E945F039B01AC01C701B6013F
:1007B0000E942E056B017C012FEF80E792E0215013
:1007C00080409040E1F700C00000219741F720E011
:1007D00030E040EA50E4C701B6010E949A05DF917B
:1007E000CF91FF90EF90DF90CF900895CF93DF935C
:1007F000EA010E94D8062C813D814E815F810E94D2
:100800002D05288539854A855B850E949A052881B2
:1008100039814A815B810E942E059B01AC0160E019
:1008200070E080E291E40E948D070E940C06CB01EB
:10083000DF91CF9108951F93CF93DF93CDB7DEB7AC
:10084000E2970FB6F894DEBF0FBECDBF009739F523
:100850000E94C40320910A0130910B0140910C01C8
:1008600050910D010E949A054AE151E00E94F60361
:10087000182F4AE0BE016F5F7F4F082E000C990BC6
:100880000E94C5088CE691E00E941E05CE010196EB
:100890000E941E0582E791E00E941E052AC0019772
:1008A00039F50E94C40320910A0130910B01409157
:1008B0000C0150910D010E949A054EE051E00E94FA
:1008C000F603182F4AE0BE016F5F7F4F082E000C21
:1008D000990B0E94C50888E791E00E941E05CE0191
:1008E00001960E941E0582E791E00E941E0501C04C
:1008F0001FEF812FE2960FB6F894DEBF0FBECDBF7B
:10090000DF91CF911F9108950E940A050E9457031D
:100910000E9493020E944603579A80E891E00E9449
:100920001E05E1E6F0E080E880831082C2E38C2FB0
:100930008A95F1F784E091E00E94EC0184E991E06E
:100940000E941E0582E00E94E6018C2F8A95F1F735
:1009500086EA91E00E941E0566E774E084E10E9449
:10096000CA01CA95F1F740E550E060E071E084E02B
:1009700091E00E94EF0488EB91E00E941E058EEC4E
:1009800091E00E941E050E948C0360930A017093FF
:100990000B0180930C0190930D018FED91E00E946B
:1009A0001E050E94B1020E94490380E090E00E946F
:1009B0001B0481E090E00E941B040E945A0389E618
:1009C00091E00E941E050E94AD022FEF87EA91E69A
:1009D000215080409040E1F700C00000E2CF5093EA
:1009E000FC014093FB01A62FB72FEDEFF1E041E0B2
:1009F00052E02D912193E417F507D9F7A82FB92FCD
:100A0000E1E0F2E027E032E08D918193E217F30715
:100A1000D9F708951092C50089E18093C40088E158
:100A20008093C1008CE08093C2000895E0ECF0E078
:100A3000908195FFFDCF8093C6000895CF93DF93FB
:100A4000EC018881882331F021960E941605899156
:100A50008111FBCFDF91CF9108955058BB27AA2772
:100A60000E9445050C9496060E94880638F00E9464
:100A70008F0620F039F49F3F19F426F40C94850674
:100A80000EF4E095E7FB0C947F06E92F0E94A70681
:100A900058F3BA17620773078407950720F079F4B3
:100AA000A6F50C94C9060EF4E0950B2EBA2FA02DD6
:100AB0000B01B90190010C01CA01A0011124FF270B
:100AC000591B99F0593F50F4503E68F11A16F04006
:100AD000A22F232F342F4427585FF3CF4695379505
:100AE0002795A795F0405395C9F77EF41F16BA0BCA
:100AF000620B730B840BBAF09150A1F0FF0FBB1F78
:100B0000661F771F881FC2F70EC0BA0F621F731FC0
:100B1000841F48F4879577956795B795F7959E3F1D
:100B200008F0B0CF9395880F08F09927EE0F9795AE
:100B3000879508950E94AE050C9496060E948F0634
:100B400058F00E94880640F029F45F3F29F00C9489
:100B50007F0651110C94CA060C9485060E94A706C4
:100B600068F39923B1F3552391F3951B550BBB27DC
:100B7000AA2762177307840738F09F5F5F4F220F21
:100B8000331F441FAA1FA9F335D00E2E3AF0E0E818
:100B900032D091505040E695001CCAF72BD0FE2F62
:100BA00029D0660F771F881FBB1F261737074807F6
:100BB000AB07B0E809F0BB0B802DBF01FF279358AE
:100BC0005F4F3AF09E3F510578F00C947F060C94ED
:100BD000CA065F3FE4F3983ED4F386957795679510
:100BE000B795F7959F5FC9F7880F911D96958795E3
:100BF00097F90895E1E0660F771F881FBB1F621702
:100C000073078407BA0720F0621B730B840BBA0BBF
:100C1000EE1F88F7E09508950E9413066894B111BD
:100C20000C94CA0608950E94AF0688F09F5798F06A
:100C3000B92F9927B751B0F0E1F0660F771F881FE1
:100C4000991F1AF0BA95C9F714C0B13091F00E94FB
:100C5000C906B1E008950C94C906672F782F88273C
:100C6000B85F39F0B93FCCF3869577956795B39522
:100C7000D9F73EF490958095709561957F4F8F4F91
:100C80009F4F0895E89409C097FB3EF49095809596
:100C9000709561957F4F8F4F9F4F9923A9F0F92F42
:100CA00096E9BB279395F695879577956795B795C0
:100CB000F111F8CFFAF4BB0F11F460FF1BC06F5FA6
:100CC0007F4F8F4F9F4F16C0882311F096E911C0B8
:100CD000772321F09EE8872F762F05C0662371F0D9
:100CE00096E8862F70E060E02AF09A95660F771FED
:100CF000881FDAF7880F9695879597F9089597F9E1
:100D00009F6780E870E060E008959FEF80EC0895B1
:100D100000240A94161617061806090608950024DA
:100D20000A9412161306140605060895092E039454
:100D3000000C11F4882352F0BB0F40F4BF2B11F4C8
:100D400060FF04C06F5F7F4F8F4F9F4F089557FD27
:100D50009058440F551F59F05F3F71F04795880F29
:100D600097FB991F61F09F3F79F0879508951216C0
:100D700013061406551FF2CF4695F1DF08C016166C
:100D800017061806991FF1CF86957105610508941D
:100D90000895E894BB2766277727CB0197F9089534
:100DA00016F00C9417080C94850668940C947F0632
:100DB0000E94AF06A8F39923C1F3AEF3DF93CF935C
:100DC0001F930F93FF92C92FDD2788232AF02197C5
:100DD000660F771F881FDAF720E030E040E85FEB0E
:100DE0009FE3883920F0803E38F021968F770E946B
:100DF0002E05ECE7F0E004C00E942E05E9EAF0E0E1
:100E00000E9425088B01BE01EC01FB2E6F57710972
:100E10007595771F880B990B0E94440628E132E7ED
:100E200041E35FE30E943307AF2D9801AE01FF90CD
:100E30000F911F91CF91DF910E9445050C9496066A
:100E40000E9433070C9496060E94880638F00E9490
:100E50008F0620F0952311F00C947F060C948506E4
:100E600011240C94CA060E94A70670F3959FC1F343
:100E7000950F50E0551F629FF001729FBB27F00D48
:100E8000B11D639FAA27F00DB11DAA1F649F66279D
:100E9000B00DA11D661F829F2227B00DA11D621FEC
:100EA000739FB00DA11D621F839FA00D611D221FA6
:100EB000749F3327A00D611D231F849F600D211D8A
:100EC000822F762F6A2F11249F5750409AF0F1F00D
:100ED00088234AF0EE0FFF1FBB1F661F771F881F76
:100EE00091505040A9F79E3F510580F00C947F0629
:100EF0000C94CA065F3FE4F3983ED4F38695779549
:100F00006795B795F795E7959F5FC1F7FE2B880F1B
:100F1000911D9695879597F90895FA01EE0FFF1F99
:100F2000309621053105A1F16115710561F4803814
:100F3000BFE39B0749F168949038810561F08038E0
:100F4000BFEF9B0741F099234AF5FF3FE1053105CB
:100F5000210519F1E8940894E795D901AA2329F409
:100F6000AB2FBE2FF85FD0F310C0FF5F70F4A695D3
:100F7000E0F7F73950F019F0FF3A38F49F779F9374
:100F80000DD00F9007FC9058089546F00C948506FC
:100F900060E070E080E89FE308954FE79F775F93FC
:100FA0004F933F932F930E94D8062F913F914F91DB
:100FB0005F910E9420070C94E50729F416F00C9429
:100FC0007F060C94C9060C9485060E94AF06A8F310
:100FD0009638A0F707F80F92E8942BE33AEA48EB2B
:100FE0005FE70E9436070F920F920F924DB75EB7E0
:100FF0000F920E948E08E6EDF0E00E9425084F91C6
:101000005F91EF91FF91E595EE1FFF1F49F0FE57AD
:10101000E0684427EE0F441FFA95E1F74195550B20
:101020000E9458080F9007FE0C944C0808959F3FAB
:1010300031F0915020F4879577956795B795880F93
:10104000911D9695879597F90895DF93CF931F93F8
:101050000F93FF92EF92DF927B018C01689406C0A0
:10106000DA2EEF010E943307FE01E894A591259145
:10107000359145915591A6F3EF010E944505FE017A
:101080009701A801DA9469F7DF90EF90FF900F9134
:101090001F91CF91DF9108959B01AC0160E070E05A
:1010A00080E89FE30C949A050C947F060C94170833
:1010B0000E94AF06D8F39923C9F3940F511DA3F3EF
:1010C0009150504094F059F0882332F0660F771F0A
:1010D000881F91505040C1F79E3F51052CF7880F53
:1010E000911D9695879597F908955F3FACF0983ECE
:1010F0009CF0BB27869577956795B79508F4B16006
:101100009395C1F7BB0F58F711F460FFE8CF6F5FFD
:101110007F4F8F4F9F4FE3CF0C94CA06FA01DC013B
:10112000AA0FBB1F9B01AC01BF5728F4222733270E
:101130004427507820C0B75190F4AB2F0024469537
:1011400037952795011CA395D2F3002071F0220F4B
:10115000331F441FB395DAF30ED00C942D05613084
:101160007105A0E88A07B94630F49B01AC016627F7
:10117000772788279078309621F020833183428327
:1011800053830895F8940C94C20BBB274A3031F472
:10119000992322F4BDE2909581959F4F0C94D1083C
:1011A000BB27FB015527AA27880F991FAA1FA41741
:1011B00010F0A41B83955051B9F7A05DAA3308F035
:1011C000A95DA193009779F7B111B1931192CB0169
:1011D0000C94E10AABE0B0E0E0EFF8E00C948B0B8C
:1011E0006C017B018A01FC0117821682838181FFD9
:1011F000CCC1CE0101963C01F6019381F70193FD2C
:10120000859193FF81917F01882309F4BAC18532CA
:1012100039F493FD859193FF81917F01853229F403
:10122000B60190E00E94F10AE7CF912C212C312CDD
:10123000FFE1F315D8F08B3279F038F4803279F091
:101240008332A1F4232D20611DC08D3261F08033E3
:1012500069F4232D216016C0832D8260382EE32D82
:10126000E4603E2E2AC0F32DF8601DC037FC2DC06F
:1012700020ED280F2A3040F08E32B9F436FC81C1BF
:10128000232D2064322E19C036FE06C08AE0989EB7
:10129000200D1124922E11C0EAE02E9E200D112463
:1012A000222EF32DF0623F2E08C08C3621F4832DC0
:1012B0008068382E02C0883641F4F70193FD85918D
:1012C00093FF81917F018111B3CF982F9F7D95541A
:1012D000933028F40C5F1F4F9FE399830DC0833632
:1012E00031F0833771F0833509F059C021C0F8011E
:1012F000808189830E5F1F4F88248394912C530132
:1013000013C02801F2E04F0E511CF801A080B180FB
:1013100036FE03C0692D70E002C06FEF7FEFC5019C
:101320000E94D60A4C018201F32DFF773F2E16C092
:10133000280122E0420E511CF801A080B18036FE47
:1013400003C0692D70E002C06FEF7FEFC5010E94FE
:10135000CB0A4C01F32DF0683F2E820133FC1BC0F9
:10136000822D90E088169906B0F4B60180E290E0F4
:101370000E94F10A2A94F4CFF50137FC859137FEDB
:1013800081915F01B60190E00E94F10A21102A9438
:1013900021E0821A91088114910471F7E8C0843623
:1013A00011F0893641F5F80137FE07C0608171817F
:1013B000828193810C5F1F4F08C060817181072E6D
:1013C000000C880B990B0E5F1F4FF32DFF763F2EFD
:1013D00097FF09C090958095709561957F4F8F4FCD
:1013E0009F4FF0683F2E2AE030E0A3010E942D0BB2
:1013F000882E861845C0853731F4232D2F7EB22ED6
:101400002AE030E025C0932D997FB92E8F36C1F0A8
:1014100018F4883579F0B5C0803719F0883721F095
:10142000B0C0E92FE061BE2EB4FE0DC0FB2DF4600C
:10143000BF2E09C034FE0AC0292F2660B22E06C076
:1014400028E030E005C020E130E002C020E132E0D9
:10145000F801B7FE07C060817181828193810C5FC2
:101460001F4F06C06081718180E090E00E5F1F4FCA
:10147000A3010E942D0B882E8618FB2DFF773F2E8F
:1014800036FE0DC0232D2E7FA22E891458F434FE73
:101490000BC032FC09C0832D8E7EA82E05C0B82C4F
:1014A000A32C03C0B82C01C0B92CA4FE0FC0FE01B0
:1014B000E80DF11D8081803321F49A2D997EA92EAB
:1014C00009C0A2FE06C0B394B39404C08A2D8678E6
:1014D00009F0B394A3FC11C0A0FE06C0B21488F4B6
:1014E000280C922C9B180EC0B21460F4B60180E256
:1014F00090E00E94F10AB394F7CFB21418F42B18BD
:1015000002C0982C212CA4FE10C0B60180E390E00C
:101510000E94F10AA2FE17C0A1FC03C088E790E078
:1015200002C088E590E0B6010CC08A2D867859F09B
:10153000A1FE02C08BE201C080E2A7FC8DE2B601F1
:1015400090E00E94F10A891438F4B60180E390E03B
:101550000E94F10A9A94F7CF8A94F301E80DF11DE5
:101560008081B60190E00E94F10A8110F5CF22201F
:1015700009F442CEB60180E290E00E94F10A2A947A
:10158000F6CFF6018681978102C08FEF9FEF2B96F1
:10159000E2E10C94A70BFC01059061507040011032
:1015A000D8F7809590958E0F9F1F0895FC0161508C
:1015B000704001900110D8F7809590958E0F9F1F75
:1015C0000895DC01FC01672F71917723E1F73297D1
:1015D00004C07C916D9370836291AE17BF07C8F30E
:1015E00008950F931F93CF93DF93FB01238121FD78
:1015F00003C08FEF9FEF2CC022FF16C0468157819A
:10160000248135814217530744F4A081B1819D01A3
:101610002F5F3F4F318320838C93268137812F5F4B
:101620003F4F3783268314C08B01EC01FB010084FC
:10163000F185E02D0995892BE1F6D80116968D915B
:101640009C911797019617969C938E931697CE01AF
:10165000DF91CF911F910F910895FA01AA272830A9
:1016600051F1203181F1E8946F936E7F6E5F7F4F6F
:101670008F4F9F4FAF4FB1E03ED0B4E03CD0670FEB
:10168000781F891F9A1FA11D680F791F8A1F911D3E
:10169000A11D6A0F711D811D911DA11D20D009F48E
:1016A00068943F912AE0269F11243019305D3193D0
:1016B000DEF6CF010895462F4770405D4193B3E0B9
:1016C0000FD0C9F7F6CF462F4F70405D4A3318F060
:1016D000495D31FD4052419302D0A9F7EACFB4E011
:1016E000A6959795879577956795BA95C9F70097C9
:1016F0006105710508959B01AC010A2E069457956A
:10170000479537952795BA95C9F7620F731F841FC0
:10171000951FA01D08952F923F924F925F926F9256
:101720007F928F929F92AF92BF92CF92DF92EF9271
:10173000FF920F931F93CF93DF93CDB7DEB7CA1BF2
:10174000DB0B0FB6F894DEBF0FBECDBF09942A881D
:10175000398848885F846E847D848C849B84AA84C5
:10176000B984C884DF80EE80FD800C811B81AA8152
:10177000B981CE0FD11D0FB6F894DEBF0FBECDBF1D
:08178000ED010895F894FFCF7C
:10178800C0A8019B54555810002400002041333351
:10179800134014AE073FF628DCBE33331340CDCCDC
:1017A8004C3E6666E6BE6572726F720D0A00202DA9
:1017B8003E2054656D70657261747572653A2000DB
:1017C8002A430D0A004D4F54494F4E204445544575
:1017D8004354454421004E4F204D4F54494F4E200D
:1017E8004445544543544544210D0A004C50473A5A
:1017F800200070706D0A0D00534D4F4B453A200084
:1018080053656E736F727320696E697469616C6970
:10181800736564004D414320696E697469616C6940
:101828007365640D0A00434C4B20696E69746961E5
:101838006C697365640D0A004E6574776F726B206E
:10184800696E697469616C697365640D0A00436146
:101858006C6962726174696E672E2E2E0A0D0043E0
:10186800616C6962726174696F6E20697320646F5C
:081878006E652E2E2E0A0D00F4
:00000001FF
